{
  "_format": "hh-sol-artifact-1",
  "contractName": "GeneNFT",
  "sourceName": "contracts/GeneNFT.sol",
  "abi": [
    {
      "inputs": [],
      "stateMutability": "nonpayable",
      "type": "constructor"
    },
    {
      "anonymous": false,
      "inputs": [
        {
          "indexed": true,
          "internalType": "address",
          "name": "owner",
          "type": "address"
        },
        {
          "indexed": true,
          "internalType": "address",
          "name": "approved",
          "type": "address"
        },
        {
          "indexed": true,
          "internalType": "uint256",
          "name": "tokenId",
          "type": "uint256"
        }
      ],
      "name": "Approval",
      "type": "event"
    },
    {
      "anonymous": false,
      "inputs": [
        {
          "indexed": true,
          "internalType": "address",
          "name": "owner",
          "type": "address"
        },
        {
          "indexed": true,
          "internalType": "address",
          "name": "operator",
          "type": "address"
        },
        {
          "indexed": false,
          "internalType": "bool",
          "name": "approved",
          "type": "bool"
        }
      ],
      "name": "ApprovalForAll",
      "type": "event"
    },
    {
      "anonymous": false,
      "inputs": [
        {
          "indexed": true,
          "internalType": "address",
          "name": "previousOwner",
          "type": "address"
        },
        {
          "indexed": true,
          "internalType": "address",
          "name": "newOwner",
          "type": "address"
        }
      ],
      "name": "OwnershipTransferred",
      "type": "event"
    },
    {
      "anonymous": false,
      "inputs": [
        {
          "indexed": true,
          "internalType": "address",
          "name": "from",
          "type": "address"
        },
        {
          "indexed": true,
          "internalType": "address",
          "name": "to",
          "type": "address"
        },
        {
          "indexed": true,
          "internalType": "uint256",
          "name": "tokenId",
          "type": "uint256"
        }
      ],
      "name": "Transfer",
      "type": "event"
    },
    {
      "inputs": [
        {
          "internalType": "address",
          "name": "to",
          "type": "address"
        },
        {
          "internalType": "uint256",
          "name": "tokenId",
          "type": "uint256"
        }
      ],
      "name": "approve",
      "outputs": [],
      "stateMutability": "nonpayable",
      "type": "function"
    },
    {
      "inputs": [
        {
          "internalType": "address",
          "name": "owner",
          "type": "address"
        }
      ],
      "name": "balanceOf",
      "outputs": [
        {
          "internalType": "uint256",
          "name": "",
          "type": "uint256"
        }
      ],
      "stateMutability": "view",
      "type": "function"
    },
    {
      "inputs": [
        {
          "internalType": "uint256",
          "name": "tokenId",
          "type": "uint256"
        }
      ],
      "name": "getApproved",
      "outputs": [
        {
          "internalType": "address",
          "name": "",
          "type": "address"
        }
      ],
      "stateMutability": "view",
      "type": "function"
    },
    {
      "inputs": [
        {
          "internalType": "address",
          "name": "owner",
          "type": "address"
        },
        {
          "internalType": "address",
          "name": "operator",
          "type": "address"
        }
      ],
      "name": "isApprovedForAll",
      "outputs": [
        {
          "internalType": "bool",
          "name": "",
          "type": "bool"
        }
      ],
      "stateMutability": "view",
      "type": "function"
    },
    {
      "inputs": [
        {
          "internalType": "string",
          "name": "uri",
          "type": "string"
        }
      ],
      "name": "isContentOwned",
      "outputs": [
        {
          "internalType": "bool",
          "name": "",
          "type": "bool"
        }
      ],
      "stateMutability": "view",
      "type": "function"
    },
    {
      "inputs": [],
      "name": "name",
      "outputs": [
        {
          "internalType": "string",
          "name": "",
          "type": "string"
        }
      ],
      "stateMutability": "view",
      "type": "function"
    },
    {
      "inputs": [],
      "name": "owner",
      "outputs": [
        {
          "internalType": "address",
          "name": "",
          "type": "address"
        }
      ],
      "stateMutability": "view",
      "type": "function"
    },
    {
      "inputs": [
        {
          "internalType": "uint256",
          "name": "tokenId",
          "type": "uint256"
        }
      ],
      "name": "ownerOf",
      "outputs": [
        {
          "internalType": "address",
          "name": "",
          "type": "address"
        }
      ],
      "stateMutability": "view",
      "type": "function"
    },
    {
      "inputs": [
        {
          "internalType": "address",
          "name": "recipient",
          "type": "address"
        },
        {
          "internalType": "string",
          "name": "metadataURI",
          "type": "string"
        }
      ],
      "name": "payToMint",
      "outputs": [
        {
          "internalType": "uint256",
          "name": "",
          "type": "uint256"
        }
      ],
      "stateMutability": "payable",
      "type": "function"
    },
    {
      "inputs": [],
      "name": "renounceOwnership",
      "outputs": [],
      "stateMutability": "nonpayable",
      "type": "function"
    },
    {
      "inputs": [
        {
          "internalType": "address",
          "name": "to",
          "type": "address"
        },
        {
          "internalType": "string",
          "name": "uri",
          "type": "string"
        }
      ],
      "name": "safeMint",
      "outputs": [],
      "stateMutability": "nonpayable",
      "type": "function"
    },
    {
      "inputs": [
        {
          "internalType": "address",
          "name": "from",
          "type": "address"
        },
        {
          "internalType": "address",
          "name": "to",
          "type": "address"
        },
        {
          "internalType": "uint256",
          "name": "tokenId",
          "type": "uint256"
        }
      ],
      "name": "safeTransferFrom",
      "outputs": [],
      "stateMutability": "nonpayable",
      "type": "function"
    },
    {
      "inputs": [
        {
          "internalType": "address",
          "name": "from",
          "type": "address"
        },
        {
          "internalType": "address",
          "name": "to",
          "type": "address"
        },
        {
          "internalType": "uint256",
          "name": "tokenId",
          "type": "uint256"
        },
        {
          "internalType": "bytes",
          "name": "_data",
          "type": "bytes"
        }
      ],
      "name": "safeTransferFrom",
      "outputs": [],
      "stateMutability": "nonpayable",
      "type": "function"
    },
    {
      "inputs": [
        {
          "internalType": "address",
          "name": "operator",
          "type": "address"
        },
        {
          "internalType": "bool",
          "name": "approved",
          "type": "bool"
        }
      ],
      "name": "setApprovalForAll",
      "outputs": [],
      "stateMutability": "nonpayable",
      "type": "function"
    },
    {
      "inputs": [
        {
          "internalType": "bytes4",
          "name": "interfaceId",
          "type": "bytes4"
        }
      ],
      "name": "supportsInterface",
      "outputs": [
        {
          "internalType": "bool",
          "name": "",
          "type": "bool"
        }
      ],
      "stateMutability": "view",
      "type": "function"
    },
    {
      "inputs": [],
      "name": "symbol",
      "outputs": [
        {
          "internalType": "string",
          "name": "",
          "type": "string"
        }
      ],
      "stateMutability": "view",
      "type": "function"
    },
    {
      "inputs": [
        {
          "internalType": "uint256",
          "name": "tokenId",
          "type": "uint256"
        }
      ],
      "name": "tokenURI",
      "outputs": [
        {
          "internalType": "string",
          "name": "",
          "type": "string"
        }
      ],
      "stateMutability": "view",
      "type": "function"
    },
    {
      "inputs": [
        {
          "internalType": "address",
          "name": "from",
          "type": "address"
        },
        {
          "internalType": "address",
          "name": "to",
          "type": "address"
        },
        {
          "internalType": "uint256",
          "name": "tokenId",
          "type": "uint256"
        }
      ],
      "name": "transferFrom",
      "outputs": [],
      "stateMutability": "nonpayable",
      "type": "function"
    },
    {
      "inputs": [
        {
          "internalType": "address",
          "name": "newOwner",
          "type": "address"
        }
      ],
      "name": "transferOwnership",
      "outputs": [],
      "stateMutability": "nonpayable",
      "type": "function"
    }
  ],
  "bytecode": "0x60806040523480156200001157600080fd5b506040518060400160405280600781526020017f47656e654e4654000000000000000000000000000000000000000000000000008152506040518060400160405280600481526020017f474e465400000000000000000000000000000000000000000000000000000000815250816000908051906020019062000096929190620001a6565b508060019080519060200190620000af929190620001a6565b505050620000d2620000c6620000d860201b60201c565b620000e060201b60201c565b620002bb565b600033905090565b6000600760009054906101000a900473ffffffffffffffffffffffffffffffffffffffff16905081600760006101000a81548173ffffffffffffffffffffffffffffffffffffffff021916908373ffffffffffffffffffffffffffffffffffffffff1602179055508173ffffffffffffffffffffffffffffffffffffffff168173ffffffffffffffffffffffffffffffffffffffff167f8be0079c531659141344cd1fd0a4f28419497f9722a3daafe3b4186f6b6457e060405160405180910390a35050565b828054620001b49062000256565b90600052602060002090601f016020900481019282620001d8576000855562000224565b82601f10620001f357805160ff191683800117855562000224565b8280016001018555821562000224579182015b828111156200022357825182559160200191906001019062000206565b5b50905062000233919062000237565b5090565b5b808211156200025257600081600090555060010162000238565b5090565b600060028204905060018216806200026f57607f821691505b602082108114156200028657620002856200028c565b5b50919050565b7f4e487b7100000000000000000000000000000000000000000000000000000000600052602260045260246000fd5b61346e80620002cb6000396000f3fe6080604052600436106101145760003560e01c8063715018a6116100a0578063b88d4fde11610064578063b88d4fde146103b6578063c87b56dd146103df578063d204c45e1461041c578063e985e9c514610445578063f2fde38b1461048257610114565b8063715018a6146102e35780638da5cb5b146102fa57806395d89b41146103255780639f1cabc614610350578063a22cb4651461038d57610114565b806323b872dd116100e757806323b872dd146101e757806342842e0e14610210578063615fd9e2146102395780636352211e1461026957806370a08231146102a657610114565b806301ffc9a71461011957806306fdde0314610156578063081812fc14610181578063095ea7b3146101be575b600080fd5b34801561012557600080fd5b50610140600480360381019061013b91906122cb565b6104ab565b60405161014d91906127b5565b60405180910390f35b34801561016257600080fd5b5061016b61058d565b60405161017891906127d0565b60405180910390f35b34801561018d57600080fd5b506101a860048036038101906101a3919061235e565b61061f565b6040516101b5919061274e565b60405180910390f35b3480156101ca57600080fd5b506101e560048036038101906101e0919061228f565b6106a4565b005b3480156101f357600080fd5b5061020e60048036038101906102099190612135565b6107bc565b005b34801561021c57600080fd5b5061023760048036038101906102329190612135565b61081c565b005b610253600480360381019061024e919061223b565b61083c565b6040516102609190612a72565b60405180910390f35b34801561027557600080fd5b50610290600480360381019061028b919061235e565b610968565b60405161029d919061274e565b60405180910390f35b3480156102b257600080fd5b506102cd60048036038101906102c891906120d0565b610a1a565b6040516102da9190612a72565b60405180910390f35b3480156102ef57600080fd5b506102f8610ad2565b005b34801561030657600080fd5b5061030f610b5a565b60405161031c919061274e565b60405180910390f35b34801561033157600080fd5b5061033a610b84565b60405161034791906127d0565b60405180910390f35b34801561035c57600080fd5b506103776004803603810190610372919061231d565b610c16565b60405161038491906127b5565b60405180910390f35b34801561039957600080fd5b506103b460048036038101906103af91906121ff565b610c51565b005b3480156103c257600080fd5b506103dd60048036038101906103d89190612184565b610c67565b005b3480156103eb57600080fd5b506104066004803603810190610401919061235e565b610cc9565b60405161041391906127d0565b60405180910390f35b34801561042857600080fd5b50610443600480360381019061043e919061223b565b610cdb565b005b34801561045157600080fd5b5061046c600480360381019061046791906120f9565b610d88565b60405161047991906127b5565b60405180910390f35b34801561048e57600080fd5b506104a960048036038101906104a491906120d0565b610e1c565b005b60007f80ac58cd000000000000000000000000000000000000000000000000000000007bffffffffffffffffffffffffffffffffffffffffffffffffffffffff1916827bffffffffffffffffffffffffffffffffffffffffffffffffffffffff1916148061057657507f5b5e139f000000000000000000000000000000000000000000000000000000007bffffffffffffffffffffffffffffffffffffffffffffffffffffffff1916827bffffffffffffffffffffffffffffffffffffffffffffffffffffffff1916145b80610586575061058582610f14565b5b9050919050565b60606000805461059c90612cc8565b80601f01602080910402602001604051908101604052809291908181526020018280546105c890612cc8565b80156106155780601f106105ea57610100808354040283529160200191610615565b820191906000526020600020905b8154815290600101906020018083116105f857829003601f168201915b5050505050905090565b600061062a82610f7e565b610669576040517f08c379a000000000000000000000000000000000000000000000000000000000815260040161066090612992565b60405180910390fd5b6004600083815260200190815260200160002060009054906101000a900473ffffffffffffffffffffffffffffffffffffffff169050919050565b60006106af82610968565b90508073ffffffffffffffffffffffffffffffffffffffff168373ffffffffffffffffffffffffffffffffffffffff161415610720576040517f08c379a0000000000000000000000000000000000000000000000000000000008152600401610717906129f2565b60405180910390fd5b8073ffffffffffffffffffffffffffffffffffffffff1661073f610fea565b73ffffffffffffffffffffffffffffffffffffffff16148061076e575061076d81610768610fea565b610d88565b5b6107ad576040517f08c379a00000000000000000000000000000000000000000000000000000000081526004016107a4906128d2565b60405180910390fd5b6107b78383610ff2565b505050565b6107cd6107c7610fea565b826110ab565b61080c576040517f08c379a000000000000000000000000000000000000000000000000000000000815260040161080390612a12565b60405180910390fd5b610817838383611189565b505050565b61083783838360405180602001604052806000815250610c67565b505050565b600060016008836040516108509190612713565b908152602001604051809103902060009054906101000a900460ff1660ff1614156108b0576040517f08c379a00000000000000000000000000000000000000000000000000000000081526004016108a790612a32565b60405180910390fd5b66b1a2bc2ec500003410156108fa576040517f08c379a00000000000000000000000000000000000000000000000000000000081526004016108f190612a52565b60405180910390fd5b600061090660096113f0565b905061091260096113fe565b60016008846040516109249190612713565b908152602001604051809103902060006101000a81548160ff021916908360ff1602179055506109548482611414565b61095e81846115ee565b8091505092915050565b6000806002600084815260200190815260200160002060009054906101000a900473ffffffffffffffffffffffffffffffffffffffff169050600073ffffffffffffffffffffffffffffffffffffffff168173ffffffffffffffffffffffffffffffffffffffff161415610a11576040517f08c379a0000000000000000000000000000000000000000000000000000000008152600401610a0890612912565b60405180910390fd5b80915050919050565b60008073ffffffffffffffffffffffffffffffffffffffff168273ffffffffffffffffffffffffffffffffffffffff161415610a8b576040517f08c379a0000000000000000000000000000000000000000000000000000000008152600401610a82906128f2565b60405180910390fd5b600360008373ffffffffffffffffffffffffffffffffffffffff1673ffffffffffffffffffffffffffffffffffffffff168152602001908152602001600020549050919050565b610ada610fea565b73ffffffffffffffffffffffffffffffffffffffff16610af8610b5a565b73ffffffffffffffffffffffffffffffffffffffff1614610b4e576040517f08c379a0000000000000000000000000000000000000000000000000000000008152600401610b45906129b2565b60405180910390fd5b610b586000611662565b565b6000600760009054906101000a900473ffffffffffffffffffffffffffffffffffffffff16905090565b606060018054610b9390612cc8565b80601f0160208091040260200160405190810160405280929190818152602001828054610bbf90612cc8565b8015610c0c5780601f10610be157610100808354040283529160200191610c0c565b820191906000526020600020905b815481529060010190602001808311610bef57829003601f168201915b5050505050905090565b60006001600883604051610c2a9190612713565b908152602001604051809103902060009054906101000a900460ff1660ff16149050919050565b610c63610c5c610fea565b8383611728565b5050565b610c78610c72610fea565b836110ab565b610cb7576040517f08c379a0000000000000000000000000000000000000000000000000000000008152600401610cae90612a12565b60405180910390fd5b610cc384848484611895565b50505050565b6060610cd4826118f1565b9050919050565b610ce3610fea565b73ffffffffffffffffffffffffffffffffffffffff16610d01610b5a565b73ffffffffffffffffffffffffffffffffffffffff1614610d57576040517f08c379a0000000000000000000000000000000000000000000000000000000008152600401610d4e906129b2565b60405180910390fd5b6000610d6360096113f0565b9050610d6f60096113fe565b610d798382611a43565b610d8381836115ee565b505050565b6000600560008473ffffffffffffffffffffffffffffffffffffffff1673ffffffffffffffffffffffffffffffffffffffff16815260200190815260200160002060008373ffffffffffffffffffffffffffffffffffffffff1673ffffffffffffffffffffffffffffffffffffffff16815260200190815260200160002060009054906101000a900460ff16905092915050565b610e24610fea565b73ffffffffffffffffffffffffffffffffffffffff16610e42610b5a565b73ffffffffffffffffffffffffffffffffffffffff1614610e98576040517f08c379a0000000000000000000000000000000000000000000000000000000008152600401610e8f906129b2565b60405180910390fd5b600073ffffffffffffffffffffffffffffffffffffffff168173ffffffffffffffffffffffffffffffffffffffff161415610f08576040517f08c379a0000000000000000000000000000000000000000000000000000000008152600401610eff90612812565b60405180910390fd5b610f1181611662565b50565b60007f01ffc9a7000000000000000000000000000000000000000000000000000000007bffffffffffffffffffffffffffffffffffffffffffffffffffffffff1916827bffffffffffffffffffffffffffffffffffffffffffffffffffffffff1916149050919050565b60008073ffffffffffffffffffffffffffffffffffffffff166002600084815260200190815260200160002060009054906101000a900473ffffffffffffffffffffffffffffffffffffffff1673ffffffffffffffffffffffffffffffffffffffff1614159050919050565b600033905090565b816004600083815260200190815260200160002060006101000a81548173ffffffffffffffffffffffffffffffffffffffff021916908373ffffffffffffffffffffffffffffffffffffffff160217905550808273ffffffffffffffffffffffffffffffffffffffff1661106583610968565b73ffffffffffffffffffffffffffffffffffffffff167f8c5be1e5ebec7d5bd14f71427d1e84f3dd0314c0f7b2291e5b200ac8c7c3b92560405160405180910390a45050565b60006110b682610f7e565b6110f5576040517f08c379a00000000000000000000000000000000000000000000000000000000081526004016110ec906128b2565b60405180910390fd5b600061110083610968565b90508073ffffffffffffffffffffffffffffffffffffffff168473ffffffffffffffffffffffffffffffffffffffff16148061114257506111418185610d88565b5b8061118057508373ffffffffffffffffffffffffffffffffffffffff166111688461061f565b73ffffffffffffffffffffffffffffffffffffffff16145b91505092915050565b8273ffffffffffffffffffffffffffffffffffffffff166111a982610968565b73ffffffffffffffffffffffffffffffffffffffff16146111ff576040517f08c379a00000000000000000000000000000000000000000000000000000000081526004016111f690612832565b60405180910390fd5b600073ffffffffffffffffffffffffffffffffffffffff168273ffffffffffffffffffffffffffffffffffffffff16141561126f576040517f08c379a000000000000000000000000000000000000000000000000000000000815260040161126690612872565b60405180910390fd5b61127a838383611a61565b611285600082610ff2565b6001600360008573ffffffffffffffffffffffffffffffffffffffff1673ffffffffffffffffffffffffffffffffffffffff16815260200190815260200160002060008282546112d59190612bde565b925050819055506001600360008473ffffffffffffffffffffffffffffffffffffffff1673ffffffffffffffffffffffffffffffffffffffff168152602001908152602001600020600082825461132c9190612b57565b92505081905550816002600083815260200190815260200160002060006101000a81548173ffffffffffffffffffffffffffffffffffffffff021916908373ffffffffffffffffffffffffffffffffffffffff160217905550808273ffffffffffffffffffffffffffffffffffffffff168473ffffffffffffffffffffffffffffffffffffffff167fddf252ad1be2c89b69c2b068fc378daa952ba7f163c4a11628f55a4df523b3ef60405160405180910390a46113eb838383611a66565b505050565b600081600001549050919050565b6001816000016000828254019250508190555050565b600073ffffffffffffffffffffffffffffffffffffffff168273ffffffffffffffffffffffffffffffffffffffff161415611484576040517f08c379a000000000000000000000000000000000000000000000000000000000815260040161147b90612952565b60405180910390fd5b61148d81610f7e565b156114cd576040517f08c379a00000000000000000000000000000000000000000000000000000000081526004016114c490612852565b60405180910390fd5b6114d960008383611a61565b6001600360008473ffffffffffffffffffffffffffffffffffffffff1673ffffffffffffffffffffffffffffffffffffffff16815260200190815260200160002060008282546115299190612b57565b92505081905550816002600083815260200190815260200160002060006101000a81548173ffffffffffffffffffffffffffffffffffffffff021916908373ffffffffffffffffffffffffffffffffffffffff160217905550808273ffffffffffffffffffffffffffffffffffffffff16600073ffffffffffffffffffffffffffffffffffffffff167fddf252ad1be2c89b69c2b068fc378daa952ba7f163c4a11628f55a4df523b3ef60405160405180910390a46115ea60008383611a66565b5050565b6115f782610f7e565b611636576040517f08c379a000000000000000000000000000000000000000000000000000000000815260040161162d90612932565b60405180910390fd5b8060066000848152602001908152602001600020908051906020019061165d929190611ef4565b505050565b6000600760009054906101000a900473ffffffffffffffffffffffffffffffffffffffff16905081600760006101000a81548173ffffffffffffffffffffffffffffffffffffffff021916908373ffffffffffffffffffffffffffffffffffffffff1602179055508173ffffffffffffffffffffffffffffffffffffffff168173ffffffffffffffffffffffffffffffffffffffff167f8be0079c531659141344cd1fd0a4f28419497f9722a3daafe3b4186f6b6457e060405160405180910390a35050565b8173ffffffffffffffffffffffffffffffffffffffff168373ffffffffffffffffffffffffffffffffffffffff161415611797576040517f08c379a000000000000000000000000000000000000000000000000000000000815260040161178e90612892565b60405180910390fd5b80600560008573ffffffffffffffffffffffffffffffffffffffff1673ffffffffffffffffffffffffffffffffffffffff16815260200190815260200160002060008473ffffffffffffffffffffffffffffffffffffffff1673ffffffffffffffffffffffffffffffffffffffff16815260200190815260200160002060006101000a81548160ff0219169083151502179055508173ffffffffffffffffffffffffffffffffffffffff168373ffffffffffffffffffffffffffffffffffffffff167f17307eab39ab6107e8899845ad3d59bd9653f200f220920489ca2b5937696c318360405161188891906127b5565b60405180910390a3505050565b6118a0848484611189565b6118ac84848484611a6b565b6118eb576040517f08c379a00000000000000000000000000000000000000000000000000000000081526004016118e2906127f2565b60405180910390fd5b50505050565b60606118fc82610f7e565b61193b576040517f08c379a000000000000000000000000000000000000000000000000000000000815260040161193290612972565b60405180910390fd5b600060066000848152602001908152602001600020805461195b90612cc8565b80601f016020809104026020016040519081016040528092919081815260200182805461198790612cc8565b80156119d45780601f106119a9576101008083540402835291602001916119d4565b820191906000526020600020905b8154815290600101906020018083116119b757829003601f168201915b5050505050905060006119e5611c02565b90506000815114156119fb578192505050611a3e565b600082511115611a30578082604051602001611a1892919061272a565b60405160208183030381529060405292505050611a3e565b611a3984611c22565b925050505b919050565b611a5d828260405180602001604052806000815250611cc9565b5050565b505050565b505050565b6000611a8c8473ffffffffffffffffffffffffffffffffffffffff16611d24565b15611bf5578373ffffffffffffffffffffffffffffffffffffffff1663150b7a02611ab5610fea565b8786866040518563ffffffff1660e01b8152600401611ad79493929190612769565b602060405180830381600087803b158015611af157600080fd5b505af1925050508015611b2257506040513d601f19601f82011682018060405250810190611b1f91906122f4565b60015b611ba5573d8060008114611b52576040519150601f19603f3d011682016040523d82523d6000602084013e611b57565b606091505b50600081511415611b9d576040517f08c379a0000000000000000000000000000000000000000000000000000000008152600401611b94906127f2565b60405180910390fd5b805181602001fd5b63150b7a0260e01b7bffffffffffffffffffffffffffffffffffffffffffffffffffffffff1916817bffffffffffffffffffffffffffffffffffffffffffffffffffffffff191614915050611bfa565b600190505b949350505050565b606060405180606001604052806022815260200161341760229139905090565b6060611c2d82610f7e565b611c6c576040517f08c379a0000000000000000000000000000000000000000000000000000000008152600401611c63906129d2565b60405180910390fd5b6000611c76611c02565b90506000815111611c965760405180602001604052806000815250611cc1565b80611ca084611d47565b604051602001611cb192919061272a565b6040516020818303038152906040525b915050919050565b611cd38383611414565b611ce06000848484611a6b565b611d1f576040517f08c379a0000000000000000000000000000000000000000000000000000000008152600401611d16906127f2565b60405180910390fd5b505050565b6000808273ffffffffffffffffffffffffffffffffffffffff163b119050919050565b60606000821415611d8f576040518060400160405280600181526020017f30000000000000000000000000000000000000000000000000000000000000008152509050611eef565b600082905060005b60008214611dc1578080611daa90612d2b565b915050600a82611dba9190612bad565b9150611d97565b60008167ffffffffffffffff811115611e03577f4e487b7100000000000000000000000000000000000000000000000000000000600052604160045260246000fd5b6040519080825280601f01601f191660200182016040528015611e355781602001600182028036833780820191505090505b5090505b60008514611ee857600182611e4e9190612bde565b9150600a85611e5d9190612d74565b6030611e699190612b57565b60f81b818381518110611ea5577f4e487b7100000000000000000000000000000000000000000000000000000000600052603260045260246000fd5b60200101907effffffffffffffffffffffffffffffffffffffffffffffffffffffffffffff1916908160001a905350600a85611ee19190612bad565b9450611e39565b8093505050505b919050565b828054611f0090612cc8565b90600052602060002090601f016020900481019282611f225760008555611f69565b82601f10611f3b57805160ff1916838001178555611f69565b82800160010185558215611f69579182015b82811115611f68578251825591602001919060010190611f4d565b5b509050611f769190611f7a565b5090565b5b80821115611f93576000816000905550600101611f7b565b5090565b6000611faa611fa584612ab2565b612a8d565b905082815260208101848484011115611fc257600080fd5b611fcd848285612c86565b509392505050565b6000611fe8611fe384612ae3565b612a8d565b90508281526020810184848401111561200057600080fd5b61200b848285612c86565b509392505050565b600081359050612022816133ba565b92915050565b600081359050612037816133d1565b92915050565b60008135905061204c816133e8565b92915050565b600081519050612061816133e8565b92915050565b600082601f83011261207857600080fd5b8135612088848260208601611f97565b91505092915050565b600082601f8301126120a257600080fd5b81356120b2848260208601611fd5565b91505092915050565b6000813590506120ca816133ff565b92915050565b6000602082840312156120e257600080fd5b60006120f084828501612013565b91505092915050565b6000806040838503121561210c57600080fd5b600061211a85828601612013565b925050602061212b85828601612013565b9150509250929050565b60008060006060848603121561214a57600080fd5b600061215886828701612013565b935050602061216986828701612013565b925050604061217a868287016120bb565b9150509250925092565b6000806000806080858703121561219a57600080fd5b60006121a887828801612013565b94505060206121b987828801612013565b93505060406121ca878288016120bb565b925050606085013567ffffffffffffffff8111156121e757600080fd5b6121f387828801612067565b91505092959194509250565b6000806040838503121561221257600080fd5b600061222085828601612013565b925050602061223185828601612028565b9150509250929050565b6000806040838503121561224e57600080fd5b600061225c85828601612013565b925050602083013567ffffffffffffffff81111561227957600080fd5b61228585828601612091565b9150509250929050565b600080604083850312156122a257600080fd5b60006122b085828601612013565b92505060206122c1858286016120bb565b9150509250929050565b6000602082840312156122dd57600080fd5b60006122eb8482850161203d565b91505092915050565b60006020828403121561230657600080fd5b600061231484828501612052565b91505092915050565b60006020828403121561232f57600080fd5b600082013567ffffffffffffffff81111561234957600080fd5b61235584828501612091565b91505092915050565b60006020828403121561237057600080fd5b600061237e848285016120bb565b91505092915050565b61239081612c12565b82525050565b61239f81612c24565b82525050565b60006123b082612b14565b6123ba8185612b2a565b93506123ca818560208601612c95565b6123d381612e61565b840191505092915050565b60006123e982612b1f565b6123f38185612b3b565b9350612403818560208601612c95565b61240c81612e61565b840191505092915050565b600061242282612b1f565b61242c8185612b4c565b935061243c818560208601612c95565b80840191505092915050565b6000612455603283612b3b565b915061246082612e72565b604082019050919050565b6000612478602683612b3b565b915061248382612ec1565b604082019050919050565b600061249b602583612b3b565b91506124a682612f10565b604082019050919050565b60006124be601c83612b3b565b91506124c982612f5f565b602082019050919050565b60006124e1602483612b3b565b91506124ec82612f88565b604082019050919050565b6000612504601983612b3b565b915061250f82612fd7565b602082019050919050565b6000612527602c83612b3b565b915061253282613000565b604082019050919050565b600061254a603883612b3b565b91506125558261304f565b604082019050919050565b600061256d602a83612b3b565b91506125788261309e565b604082019050919050565b6000612590602983612b3b565b915061259b826130ed565b604082019050919050565b60006125b3602e83612b3b565b91506125be8261313c565b604082019050919050565b60006125d6602083612b3b565b91506125e18261318b565b602082019050919050565b60006125f9603183612b3b565b9150612604826131b4565b604082019050919050565b600061261c602c83612b3b565b915061262782613203565b604082019050919050565b600061263f602083612b3b565b915061264a82613252565b602082019050919050565b6000612662602f83612b3b565b915061266d8261327b565b604082019050919050565b6000612685602183612b3b565b9150612690826132ca565b604082019050919050565b60006126a8603183612b3b565b91506126b382613319565b604082019050919050565b60006126cb601383612b3b565b91506126d682613368565b602082019050919050565b60006126ee600f83612b3b565b91506126f982613391565b602082019050919050565b61270d81612c7c565b82525050565b600061271f8284612417565b915081905092915050565b60006127368285612417565b91506127428284612417565b91508190509392505050565b60006020820190506127636000830184612387565b92915050565b600060808201905061277e6000830187612387565b61278b6020830186612387565b6127986040830185612704565b81810360608301526127aa81846123a5565b905095945050505050565b60006020820190506127ca6000830184612396565b92915050565b600060208201905081810360008301526127ea81846123de565b905092915050565b6000602082019050818103600083015261280b81612448565b9050919050565b6000602082019050818103600083015261282b8161246b565b9050919050565b6000602082019050818103600083015261284b8161248e565b9050919050565b6000602082019050818103600083015261286b816124b1565b9050919050565b6000602082019050818103600083015261288b816124d4565b9050919050565b600060208201905081810360008301526128ab816124f7565b9050919050565b600060208201905081810360008301526128cb8161251a565b9050919050565b600060208201905081810360008301526128eb8161253d565b9050919050565b6000602082019050818103600083015261290b81612560565b9050919050565b6000602082019050818103600083015261292b81612583565b9050919050565b6000602082019050818103600083015261294b816125a6565b9050919050565b6000602082019050818103600083015261296b816125c9565b9050919050565b6000602082019050818103600083015261298b816125ec565b9050919050565b600060208201905081810360008301526129ab8161260f565b9050919050565b600060208201905081810360008301526129cb81612632565b9050919050565b600060208201905081810360008301526129eb81612655565b9050919050565b60006020820190508181036000830152612a0b81612678565b9050919050565b60006020820190508181036000830152612a2b8161269b565b9050919050565b60006020820190508181036000830152612a4b816126be565b9050919050565b60006020820190508181036000830152612a6b816126e1565b9050919050565b6000602082019050612a876000830184612704565b92915050565b6000612a97612aa8565b9050612aa38282612cfa565b919050565b6000604051905090565b600067ffffffffffffffff821115612acd57612acc612e32565b5b612ad682612e61565b9050602081019050919050565b600067ffffffffffffffff821115612afe57612afd612e32565b5b612b0782612e61565b9050602081019050919050565b600081519050919050565b600081519050919050565b600082825260208201905092915050565b600082825260208201905092915050565b600081905092915050565b6000612b6282612c7c565b9150612b6d83612c7c565b9250827fffffffffffffffffffffffffffffffffffffffffffffffffffffffffffffffff03821115612ba257612ba1612da5565b5b828201905092915050565b6000612bb882612c7c565b9150612bc383612c7c565b925082612bd357612bd2612dd4565b5b828204905092915050565b6000612be982612c7c565b9150612bf483612c7c565b925082821015612c0757612c06612da5565b5b828203905092915050565b6000612c1d82612c5c565b9050919050565b60008115159050919050565b60007fffffffff0000000000000000000000000000000000000000000000000000000082169050919050565b600073ffffffffffffffffffffffffffffffffffffffff82169050919050565b6000819050919050565b82818337600083830152505050565b60005b83811015612cb3578082015181840152602081019050612c98565b83811115612cc2576000848401525b50505050565b60006002820490506001821680612ce057607f821691505b60208210811415612cf457612cf3612e03565b5b50919050565b612d0382612e61565b810181811067ffffffffffffffff82111715612d2257612d21612e32565b5b80604052505050565b6000612d3682612c7c565b91507fffffffffffffffffffffffffffffffffffffffffffffffffffffffffffffffff821415612d6957612d68612da5565b5b600182019050919050565b6000612d7f82612c7c565b9150612d8a83612c7c565b925082612d9a57612d99612dd4565b5b828206905092915050565b7f4e487b7100000000000000000000000000000000000000000000000000000000600052601160045260246000fd5b7f4e487b7100000000000000000000000000000000000000000000000000000000600052601260045260246000fd5b7f4e487b7100000000000000000000000000000000000000000000000000000000600052602260045260246000fd5b7f4e487b7100000000000000000000000000000000000000000000000000000000600052604160045260246000fd5b6000601f19601f8301169050919050565b7f4552433732313a207472616e7366657220746f206e6f6e20455243373231526560008201527f63656976657220696d706c656d656e7465720000000000000000000000000000602082015250565b7f4f776e61626c653a206e6577206f776e657220697320746865207a65726f206160008201527f6464726573730000000000000000000000000000000000000000000000000000602082015250565b7f4552433732313a207472616e736665722066726f6d20696e636f72726563742060008201527f6f776e6572000000000000000000000000000000000000000000000000000000602082015250565b7f4552433732313a20746f6b656e20616c7265616479206d696e74656400000000600082015250565b7f4552433732313a207472616e7366657220746f20746865207a65726f2061646460008201527f7265737300000000000000000000000000000000000000000000000000000000602082015250565b7f4552433732313a20617070726f766520746f2063616c6c657200000000000000600082015250565b7f4552433732313a206f70657261746f7220717565727920666f72206e6f6e657860008201527f697374656e7420746f6b656e0000000000000000000000000000000000000000602082015250565b7f4552433732313a20617070726f76652063616c6c6572206973206e6f74206f7760008201527f6e6572206e6f7220617070726f76656420666f7220616c6c0000000000000000602082015250565b7f4552433732313a2062616c616e636520717565727920666f7220746865207a6560008201527f726f206164647265737300000000000000000000000000000000000000000000602082015250565b7f4552433732313a206f776e657220717565727920666f72206e6f6e657869737460008201527f656e7420746f6b656e0000000000000000000000000000000000000000000000602082015250565b7f45524337323155524953746f726167653a2055524920736574206f66206e6f6e60008201527f6578697374656e7420746f6b656e000000000000000000000000000000000000602082015250565b7f4552433732313a206d696e7420746f20746865207a65726f2061646472657373600082015250565b7f45524337323155524953746f726167653a2055524920717565727920666f722060008201527f6e6f6e6578697374656e7420746f6b656e000000000000000000000000000000602082015250565b7f4552433732313a20617070726f76656420717565727920666f72206e6f6e657860008201527f697374656e7420746f6b656e0000000000000000000000000000000000000000602082015250565b7f4f776e61626c653a2063616c6c6572206973206e6f7420746865206f776e6572600082015250565b7f4552433732314d657461646174613a2055524920717565727920666f72206e6f60008201527f6e6578697374656e7420746f6b656e0000000000000000000000000000000000602082015250565b7f4552433732313a20617070726f76616c20746f2063757272656e74206f776e6560008201527f7200000000000000000000000000000000000000000000000000000000000000602082015250565b7f4552433732313a207472616e736665722063616c6c6572206973206e6f74206f60008201527f776e6572206e6f7220617070726f766564000000000000000000000000000000602082015250565b7f4e465420616c7265616479206d696e7465642100000000000000000000000000600082015250565b7f4e65656420746f20706179207570210000000000000000000000000000000000600082015250565b6133c381612c12565b81146133ce57600080fd5b50565b6133da81612c24565b81146133e557600080fd5b50565b6133f181612c30565b81146133fc57600080fd5b50565b61340881612c7c565b811461341357600080fd5b5056fe68747470733a2f2f676174657761792e70696e6174612e636c6f75642f697066732fa2646970667358221220a159777ea26e2628288ebf40adecfac2e11a9e5e349be0a2c5723035f1c8c04264736f6c63430008040033",
  "linkReferences": {},
  "deployedLinkReferences": {}
}